:03000000020CB837
:0C0CB800787FE4F6D8FD758137020CFF50
:040FFB0002150000DB
:100ED3001210007F147E00120FB17D027F03120DEA
:100EE300BC53C9EF7D02E4FF120E9D74F9FDFCE4CF
:0C0EF300FF120E66D28CD2A9D2AF80FE96
:03000B00020F5091
:100F5000C0E0C0D0D3E51694F3E5159401400A75BE
:100F60001500751600B2B280080516E51670020568
:060F700015D0D0D0E032E4
:100FDF004750494F5F5354415455533A20253032AF
:030FEF00780A007D
:100DBC00EF14601B14602914603924037046EDF89D
:100DCC007401088002C333D8FCF45292529322ED82
:100DDC00F87401088002C333D8FCFFF452928021CE
:100DEC00EDF87401088002C333D8FCFF4292EFF493
:100DFC00529322EDF87401088002C333D8FCFF42F1
:050E0C0092EF42932269
:100E1100EF14601B14602914603924037046EDF847
:100E21007401088002C333D8FCF45296529722ED24
:100E3100F87401088002C333D8FCFFF45296802174
:100E4100EDF87401088002C333D8FCFF4296EFF439
:100E5100529722EDF87401088002C333D8FCFF4297
:050E610096EF4297220C
:090FF20053C77F43C73CD2EE2235
:03006300020EFF8B
:100EFF00C0E0C0F0C083C082C0D075D0087BFF7A3D
:100F0F000F79DFE5C65440752700F528120862D027
:0A0F1F00D0D082D083D0F0D0E032B1
:1010000075A15575A1AAE5B954F84402F5B9E4F5FE
:02101000A1221B
:100F7600EF7802CEC313CE13D8F9FF7802CEC3138F
:100F8600CE13D8F9FFEF4E600905A1EF1F70F61ECC
:030F960080F322C3
:100FB100AD07AC06ED4C600E7FE87E03120F76EDB7
:070FC1001D70F11C80EE22FF
:0410340043C610227D
:100D4400C29FD29EC29DC2CDC2CC438780E475139C
:100D540020F512F511F5107B0AFAF9F8AF13AE126B
:100D6400AD11AC10120B98AF038F14AF13AE12ADCC
:100D740011AC10E47B0AFAF9F8120B988F138E1257
:100D84008D118C10C3E5149405748094804011EF88
:100D94002401F513E43EF512E43DF511E43CF510AD
:100DA400E589540F4420F58943C9A0E513F404F5FB
:070DB4008DD28ED299D29C72
:010DBB002215
:081024003098FDC298AF99223B
:08102C008F993099FDC2992251
:100FC80075A15575A1AAEF600543B101800353B11E
:070FD800FEE4F5A1F5FF2284
:031038008FFF2205
:100E9D00EFFB7A007009E58954F04DF5898024EB5C
:100EAD0064014A700EEDC454F0FFE589540F4FF5FF
:100EBD00898010EF64027008C2CDC2CCC2C8800315
:060ECD007FFF227F0022DE
:100E6600C3E49DFDE49CFCEF700ACFEDCFEFF58A5D
:100E7600ECF58C22EF6401700ACFEDCFEFF58BEC29
:100E8600F58D22EF6402700ECFEDCFEFF5CC8FCA51
:060E9600ECFFF5CD8FCB4F
:010E9C002233
:10101200C2CDC2CCC2C9D2CBD2C8EF25E025E042B4
:02102200C922E1
:100F9900C2CDC2CCD2C8C2C9EF25E025E0FFE5C960
:080FA90054FD4F4401F5C9227B
:100CC400020ED3E493A3F8E493A34003F68001F265
:100CD40008DFF48029E493A3F85407240CC8C33331
:100CE400C4540F4420C8834004F456800146F6DF00
:100CF400E4800B0102040810204080900FFBE47E86
:100D0400019360BCA3FF543F30E509541FFEE493F4
:100D1400A360010ECF54C025E060A840B8E493A3BB
:100D2400FAE493A3F8E493A3C8C582C8CAC583CAE6
:100D3400F0A3C8C582C8CAC583CADFE9DEE780BE9E
:010FFF0000F1
:100B5C0075F008758200EF2FFFEE33FECD33CDCC50
:100B6C0033CCC58233C5829BED9AEC99E5829840D3
:100B7C000CF582EE9BFEED9AFDEC99FC0FD5F0D6B0
:100B8C00E4CEFBE4CDFAE4CCF9A88222B800C1B9DA
:100B9C000059BA002DEC8BF084CFCECDFCE5F0CB18
:100BAC00F97818EF2FFFEE33FEED33FDEC33FCEB51
:100BBC0033FB10D703994004EB99FB0FD8E5E4F90C
:100BCC00FA227818EF2FFFEE33FEED33FDEC33FCF9
:100BDC00C933C910D7059BE99A4007EC9BFCE99AED
:100BEC00F90FD8E0E4C9FAE4CCFB2275F010EF2F32
:100BFC00FFEE33FEED33FDCC33CCC833C810D70732
:100C0C009BEC9AE899400AED9BFDEC9AFCE899F86C
:0E0C1C000FD5F0DAE4CDFBE4CCFAE4C8F922FF
:10080000E5332427F8E605332278243007027827D9
:10081000E475F001120C82020C2A2000EB7F2ED22C
:10082000008018EF540F2490D43440D4FF30040BD0
:10083000EF24BFB41A0050032461FFE534600215B1
:10084000340537E5377002053630070D7824E47536
:10085000F001120C82EF020C70020F297403D20710
:100860008003E4C207F5338B248A258926E4F53416
:10087000F536F537E53460077F2012083B80F575C3
:1008800035FFC201C200C202C203C205C206C208CD
:10089000120809FF700D3007057F0012084CAF37B2
:1008A000AE3622B4255FC2D5C204120809FF24D097
:1008B000B40A00501A75F00A783430D50508B6FF2E
:1008C0000106C6A426F620D5047002D20380D924DE
:1008D000CFB41A00EF5004C2E5D204020A4CD20190
:1008E00080C6D20080C0D20280BCD2D580BAD205E8
:1008F00080B47F2012083B2002077401B534004009
:10090000F1120800FF12083B020874D208D20680D8
:1009100095120800FB120800FA120800F94A4B7001
:1009200006791D7A0B7BFF20022EE534602A7E00BB
:100930008E82758300120C4360060EEE653570F0F2
:10094000C2D5EBC0E0EAC0E0E9C0E0EE120A93D005
:10095000E0F9D0E0FAD0E0FB120C2AFF60AAEBC06D
:10096000E0EAC0E0E9C0E012083BD0E02401F9D0A1
:10097000E03400FAD0E0FBE5350460DCD535D98001
:10098000877BFF7A0A798FD202809C791080027966
:1009900008C206C2088008D2D5790A8004790AC242
:1009A000D5E535047002F535E4FAFDFEFF120800C6
:1009B000FC7B08200113120800FD7B1030000A1296
:1009C0000800FE120800FF7B20EC3382D592D55040
:1009D00013C3E43000069FFFE49EFEE42001039D64
:1009E000FDE49CFCE4CBF8C201EC700CCFCECDCC86
:1009F000E824F8F870F38017C3EF33FFEE33FEED11
:100A000033FDEC33FCEB33FB994002FB0FD8E9EBF1
:100A1000300105F8D0E0C448B201C0E00AEC4D4E08
:100A20004F78207B0070C2EAB5350040BCC0E012B0
:100A30000A95D0F0D0E0200104C4C0E0C4B201C0E7
:100A4000F0120824D0F0D5F0EB020874120C9209D1
:100A50001153098B5808E24C08DE42098F4F099761
:0F0A60004409974908F743099D550981460981C3
:100A6F00450981470B3D5008E62D08EA2E090D2B4D
:100A7F0008EE23090B200B262A08A64800000905BB
:100A8F003F3F3F00790AA2D5200314300509B91062
:100A9F00020404B9080104A2D52006025001042063
:100AAF0002689202B534005034C0E07F2030031941
:100ABF007F30A20272067205500F120AECC202C2F8
:100ACF0006C205C2087F30800F300503E9C0E0126F
:100ADF00083B300503D0E0F9D0E0B534CC30051732
:100AEF007F30B9100C12083B7F583004077F788095
:100AFF0003B9080312083B3002057F2D02083B7F24
:100B0F00202008F87F2B2006F322920280CF286E38
:100B1F00756C6C2900D2011208003001F8C20178FF
:100B2F003430D50108F60208A62D50434958120853
:100B3F00002403B405004001E4900B389312082CF5
:0D0B4F00743A12082CD20375340402098B8D
:100C2A00BB010689828A83E0225002E722BBFE02C8
:090C3A00E32289828A83E49322FB
:100C4300BB010CE58229F582E5833AF583E0225066
:100C530006E92582F8E622BBFE06E92582F8E222B0
:0D0C6300E58229F582E5833AF583E49322CA
:100C7000BB010689828A83F0225002F722BBFE0163
:020C8000F3225D
:100C8200FAE6FB0808E6F925F0F618E6CA3AF62273
:100C9200D083D082F8E4937012740193700DA3A3F1
:100CA20093F8740193F5828883E473740293686005
:060CB200EFA3A3A380DF05
:100F2900EFB40A07740D120F34740A309811A89996
:100F3900B8130CC2983098FDA899C298B811F63028
:070F490099FDC299F5992200
:00000001FF
